{
  "contractName": "CareGame",
  "abi": [
    {
      "constant": false,
      "inputs": [],
      "name": "renounceOwnership",
      "outputs": [],
      "payable": false,
      "stateMutability": "nonpayable",
      "type": "function"
    },
    {
      "constant": true,
      "inputs": [],
      "name": "owner",
      "outputs": [
        {
          "name": "",
          "type": "address"
        }
      ],
      "payable": false,
      "stateMutability": "view",
      "type": "function"
    },
    {
      "constant": false,
      "inputs": [
        {
          "name": "_newOwner",
          "type": "address"
        }
      ],
      "name": "transferOwnership",
      "outputs": [],
      "payable": false,
      "stateMutability": "nonpayable",
      "type": "function"
    },
    {
      "payable": true,
      "stateMutability": "payable",
      "type": "fallback"
    },
    {
      "anonymous": false,
      "inputs": [
        {
          "indexed": true,
          "name": "previousOwner",
          "type": "address"
        }
      ],
      "name": "OwnershipRenounced",
      "type": "event"
    },
    {
      "anonymous": false,
      "inputs": [
        {
          "indexed": true,
          "name": "previousOwner",
          "type": "address"
        },
        {
          "indexed": true,
          "name": "newOwner",
          "type": "address"
        }
      ],
      "name": "OwnershipTransferred",
      "type": "event"
    },
    {
      "constant": false,
      "inputs": [
        {
          "name": "addr",
          "type": "address"
        },
        {
          "name": "p_receiver",
          "type": "address"
        },
        {
          "name": "p_ethAmount",
          "type": "uint256"
        },
        {
          "name": "p_amountToUnlock",
          "type": "uint256"
        }
      ],
      "name": "create",
      "outputs": [],
      "payable": false,
      "stateMutability": "nonpayable",
      "type": "function"
    },
    {
      "constant": false,
      "inputs": [],
      "name": "checkAchievements",
      "outputs": [],
      "payable": false,
      "stateMutability": "nonpayable",
      "type": "function"
    }
  ],
  "bytecode": "0x6080604052336000806101000a81548173ffffffffffffffffffffffffffffffffffffffff021916908373ffffffffffffffffffffffffffffffffffffffff160217905550610668806100536000396000f30060806040526004361061006d576000357c0100000000000000000000000000000000000000000000000000000000900463ffffffff168063715018a61461006f5780638da5cb5b14610086578063d5c44c69146100dd578063e95bb41b14610154578063f2fde38b1461016b575b005b34801561007b57600080fd5b506100846101ae565b005b34801561009257600080fd5b5061009b6102b0565b604051808273ffffffffffffffffffffffffffffffffffffffff1673ffffffffffffffffffffffffffffffffffffffff16815260200191505060405180910390f35b3480156100e957600080fd5b50610152600480360381019080803573ffffffffffffffffffffffffffffffffffffffff169060200190929190803573ffffffffffffffffffffffffffffffffffffffff16906020019092919080359060200190929190803590602001909291905050506102d5565b005b34801561016057600080fd5b5061016961036b565b005b34801561017757600080fd5b506101ac600480360381019080803573ffffffffffffffffffffffffffffffffffffffff1690602001909291905050506104db565b005b6000809054906101000a900473ffffffffffffffffffffffffffffffffffffffff1673ffffffffffffffffffffffffffffffffffffffff163373ffffffffffffffffffffffffffffffffffffffff1614151561020957600080fd5b6000809054906101000a900473ffffffffffffffffffffffffffffffffffffffff1673ffffffffffffffffffffffffffffffffffffffff167ff8df31144d9c2f0f6b59d69b8b98abd5459d07f2742c4df920b25aae33c6482060405160405180910390a260008060006101000a81548173ffffffffffffffffffffffffffffffffffffffff021916908373ffffffffffffffffffffffffffffffffffffffff160217905550565b6000809054906101000a900473ffffffffffffffffffffffffffffffffffffffff1681565b83600160006101000a81548173ffffffffffffffffffffffffffffffffffffffff021916908373ffffffffffffffffffffffffffffffffffffffff16021790555082600360006101000a81548173ffffffffffffffffffffffffffffffffffffffff021916908373ffffffffffffffffffffffffffffffffffffffff160217905550816002819055508060048190555050505050565b600454600160009054906101000a900473ffffffffffffffffffffffffffffffffffffffff1673ffffffffffffffffffffffffffffffffffffffff166370a08231306040518263ffffffff167c0100000000000000000000000000000000000000000000000000000000028152600401808273ffffffffffffffffffffffffffffffffffffffff1673ffffffffffffffffffffffffffffffffffffffff168152602001915050602060405180830381600087803b15801561042b57600080fd5b505af115801561043f573d6000803e3d6000fd5b505050506040513d602081101561045557600080fd5b81019080805190602001909291905050501015156104d957600360009054906101000a900473ffffffffffffffffffffffffffffffffffffffff1673ffffffffffffffffffffffffffffffffffffffff166108fc6002549081150290604051600060405180830381858888f193505050501580156104d7573d6000803e3d6000fd5b505b565b6000809054906101000a900473ffffffffffffffffffffffffffffffffffffffff1673ffffffffffffffffffffffffffffffffffffffff163373ffffffffffffffffffffffffffffffffffffffff1614151561053657600080fd5b61053f81610542565b50565b600073ffffffffffffffffffffffffffffffffffffffff168173ffffffffffffffffffffffffffffffffffffffff161415151561057e57600080fd5b8073ffffffffffffffffffffffffffffffffffffffff166000809054906101000a900473ffffffffffffffffffffffffffffffffffffffff1673ffffffffffffffffffffffffffffffffffffffff167f8be0079c531659141344cd1fd0a4f28419497f9722a3daafe3b4186f6b6457e060405160405180910390a3806000806101000a81548173ffffffffffffffffffffffffffffffffffffffff021916908373ffffffffffffffffffffffffffffffffffffffff160217905550505600a165627a7a723058203ec603ccd06b1863ba41fa4d2eb670c0f52310e5261ca8a6a4c2acb29ffa58ce0029",
  "source": "pragma solidity ^0.4.24;\nimport \"./Ownable.sol\";\nimport \"./Hack721Token.sol\";\n// This is just a simple example of a coin-like contract.\n// It is not standards compatible and cannot be expected to talk to other\n// coin/token contracts. If you want to create a standards-compliant\n// token, see: https://github.com/ConsenSys/Tokens. Cheers!\ncontract CareGame is Ownable {\n\n    Hack721Token token;\n    uint ethAmount;\n    address receiver;\n    uint amountToUnlock;\n\n    function create (address addr, address p_receiver, uint p_ethAmount, uint p_amountToUnlock) public {\n        token = Hack721Token(addr);\n        receiver = p_receiver;\n        ethAmount = p_ethAmount;\n        amountToUnlock = p_amountToUnlock;\n    }\n\n    function checkAchievements() public {\n        if (token.balanceOf(address(this)) >= amountToUnlock) {\n            receiver.transfer(ethAmount);\n        }\n    }\n\n    function () public payable {}\n}\n",
  "sourcePath": "/Users/golfier/Documents/Personnel/git/hack721/contracts/CareGame.sol",
  "compiler": {
    "name": "solc",
    "version": "0.4.24+commit.e67f0147.Emscripten.clang"
  },
  "schemaVersion": "2.0.1",
  "updatedAt": "2018-07-03T08:13:23.289Z"
}