{
  "contractName": "Hack721Token",
  "abi": [
    {
      "constant": true,
      "inputs": [],
      "name": "name",
      "outputs": [
        {
          "name": "",
          "type": "string"
        }
      ],
      "payable": false,
      "stateMutability": "view",
      "type": "function"
    },
    {
      "constant": true,
      "inputs": [
        {
          "name": "_tokenId",
          "type": "uint256"
        }
      ],
      "name": "getApproved",
      "outputs": [
        {
          "name": "",
          "type": "address"
        }
      ],
      "payable": false,
      "stateMutability": "view",
      "type": "function"
    },
    {
      "constant": false,
      "inputs": [
        {
          "name": "_to",
          "type": "address"
        },
        {
          "name": "_tokenId",
          "type": "uint256"
        }
      ],
      "name": "approve",
      "outputs": [],
      "payable": false,
      "stateMutability": "nonpayable",
      "type": "function"
    },
    {
      "constant": true,
      "inputs": [],
      "name": "totalSupply",
      "outputs": [
        {
          "name": "",
          "type": "uint256"
        }
      ],
      "payable": false,
      "stateMutability": "view",
      "type": "function"
    },
    {
      "constant": false,
      "inputs": [
        {
          "name": "_from",
          "type": "address"
        },
        {
          "name": "_to",
          "type": "address"
        },
        {
          "name": "_tokenId",
          "type": "uint256"
        }
      ],
      "name": "transferFrom",
      "outputs": [],
      "payable": false,
      "stateMutability": "nonpayable",
      "type": "function"
    },
    {
      "constant": true,
      "inputs": [
        {
          "name": "_owner",
          "type": "address"
        },
        {
          "name": "_index",
          "type": "uint256"
        }
      ],
      "name": "tokenOfOwnerByIndex",
      "outputs": [
        {
          "name": "",
          "type": "uint256"
        }
      ],
      "payable": false,
      "stateMutability": "view",
      "type": "function"
    },
    {
      "constant": false,
      "inputs": [
        {
          "name": "_from",
          "type": "address"
        },
        {
          "name": "_to",
          "type": "address"
        },
        {
          "name": "_tokenId",
          "type": "uint256"
        }
      ],
      "name": "safeTransferFrom",
      "outputs": [],
      "payable": false,
      "stateMutability": "nonpayable",
      "type": "function"
    },
    {
      "constant": true,
      "inputs": [
        {
          "name": "_tokenId",
          "type": "uint256"
        }
      ],
      "name": "exists",
      "outputs": [
        {
          "name": "",
          "type": "bool"
        }
      ],
      "payable": false,
      "stateMutability": "view",
      "type": "function"
    },
    {
      "constant": true,
      "inputs": [
        {
          "name": "_index",
          "type": "uint256"
        }
      ],
      "name": "tokenByIndex",
      "outputs": [
        {
          "name": "",
          "type": "uint256"
        }
      ],
      "payable": false,
      "stateMutability": "view",
      "type": "function"
    },
    {
      "constant": true,
      "inputs": [],
      "name": "symbol",
      "outputs": [
        {
          "name": "",
          "type": "string"
        }
      ],
      "payable": false,
      "stateMutability": "view",
      "type": "function"
    },
    {
      "constant": false,
      "inputs": [
        {
          "name": "_to",
          "type": "address"
        },
        {
          "name": "_approved",
          "type": "bool"
        }
      ],
      "name": "setApprovalForAll",
      "outputs": [],
      "payable": false,
      "stateMutability": "nonpayable",
      "type": "function"
    },
    {
      "constant": false,
      "inputs": [
        {
          "name": "_from",
          "type": "address"
        },
        {
          "name": "_to",
          "type": "address"
        },
        {
          "name": "_tokenId",
          "type": "uint256"
        },
        {
          "name": "_data",
          "type": "bytes"
        }
      ],
      "name": "safeTransferFrom",
      "outputs": [],
      "payable": false,
      "stateMutability": "nonpayable",
      "type": "function"
    },
    {
      "constant": true,
      "inputs": [
        {
          "name": "_tokenId",
          "type": "uint256"
        }
      ],
      "name": "tokenURI",
      "outputs": [
        {
          "name": "",
          "type": "string"
        }
      ],
      "payable": false,
      "stateMutability": "view",
      "type": "function"
    },
    {
      "constant": true,
      "inputs": [
        {
          "name": "_owner",
          "type": "address"
        },
        {
          "name": "_operator",
          "type": "address"
        }
      ],
      "name": "isApprovedForAll",
      "outputs": [
        {
          "name": "",
          "type": "bool"
        }
      ],
      "payable": false,
      "stateMutability": "view",
      "type": "function"
    },
    {
      "anonymous": false,
      "inputs": [
        {
          "indexed": true,
          "name": "_from",
          "type": "address"
        },
        {
          "indexed": true,
          "name": "_to",
          "type": "address"
        },
        {
          "indexed": false,
          "name": "_tokenId",
          "type": "uint256"
        }
      ],
      "name": "Transfer",
      "type": "event"
    },
    {
      "anonymous": false,
      "inputs": [
        {
          "indexed": true,
          "name": "_owner",
          "type": "address"
        },
        {
          "indexed": true,
          "name": "_approved",
          "type": "address"
        },
        {
          "indexed": false,
          "name": "_tokenId",
          "type": "uint256"
        }
      ],
      "name": "Approval",
      "type": "event"
    },
    {
      "anonymous": false,
      "inputs": [
        {
          "indexed": true,
          "name": "_owner",
          "type": "address"
        },
        {
          "indexed": true,
          "name": "_operator",
          "type": "address"
        },
        {
          "indexed": false,
          "name": "_approved",
          "type": "bool"
        }
      ],
      "name": "ApprovalForAll",
      "type": "event"
    },
    {
      "constant": false,
      "inputs": [
        {
          "name": "name",
          "type": "string"
        },
        {
          "name": "solidaire",
          "type": "bool"
        },
        {
          "name": "achievment",
          "type": "string"
        },
        {
          "name": "plateforme",
          "type": "string"
        }
      ],
      "name": "create",
      "outputs": [],
      "payable": false,
      "stateMutability": "nonpayable",
      "type": "function"
    },
    {
      "constant": true,
      "inputs": [
        {
          "name": "_tokenId",
          "type": "uint256"
        }
      ],
      "name": "ownerOf",
      "outputs": [
        {
          "name": "owner",
          "type": "address"
        }
      ],
      "payable": false,
      "stateMutability": "view",
      "type": "function"
    },
    {
      "constant": false,
      "inputs": [
        {
          "name": "_to",
          "type": "address"
        },
        {
          "name": "_tokenId",
          "type": "uint256"
        }
      ],
      "name": "transfer",
      "outputs": [],
      "payable": false,
      "stateMutability": "nonpayable",
      "type": "function"
    },
    {
      "constant": true,
      "inputs": [
        {
          "name": "_owner",
          "type": "address"
        }
      ],
      "name": "balanceOf",
      "outputs": [
        {
          "name": "balance",
          "type": "uint256"
        }
      ],
      "payable": false,
      "stateMutability": "view",
      "type": "function"
    },
    {
      "constant": true,
      "inputs": [
        {
          "name": "tokenId",
          "type": "uint256"
        }
      ],
      "name": "getTokenName",
      "outputs": [
        {
          "name": "",
          "type": "string"
        }
      ],
      "payable": false,
      "stateMutability": "view",
      "type": "function"
    },
    {
      "constant": true,
      "inputs": [
        {
          "name": "name",
          "type": "string"
        }
      ],
      "name": "getTokenId",
      "outputs": [
        {
          "name": "",
          "type": "uint256"
        }
      ],
      "payable": false,
      "stateMutability": "view",
      "type": "function"
    },
    {
      "constant": true,
      "inputs": [
        {
          "name": "tokenId",
          "type": "uint256"
        }
      ],
      "name": "getTokenSolidaire",
      "outputs": [
        {
          "name": "",
          "type": "bool"
        }
      ],
      "payable": false,
      "stateMutability": "view",
      "type": "function"
    },
    {
      "constant": true,
      "inputs": [
        {
          "name": "tokenId",
          "type": "uint256"
        }
      ],
      "name": "getTokenAchievement",
      "outputs": [
        {
          "name": "",
          "type": "string"
        }
      ],
      "payable": false,
      "stateMutability": "view",
      "type": "function"
    },
    {
      "constant": true,
      "inputs": [
        {
          "name": "tokenId",
          "type": "uint256"
        }
      ],
      "name": "getTokenPlatform",
      "outputs": [
        {
          "name": "",
          "type": "string"
        }
      ],
      "payable": false,
      "stateMutability": "view",
      "type": "function"
    },
    {
      "constant": true,
      "inputs": [
        {
          "name": "tokenId",
          "type": "uint256"
        }
      ],
      "name": "getTokenTime",
      "outputs": [
        {
          "name": "",
          "type": "uint256"
        }
      ],
      "payable": false,
      "stateMutability": "view",
      "type": "function"
    },
    {
      "constant": true,
      "inputs": [
        {
          "name": "tokenId",
          "type": "uint256"
        }
      ],
      "name": "getTokenAddress",
      "outputs": [
        {
          "name": "",
          "type": "address"
        }
      ],
      "payable": false,
      "stateMutability": "view",
      "type": "function"
    }
  ],
  "bytecode": "0x60806040526040805190810160405280600c81526020017f4861636b373231546f6b656e00000000000000000000000000000000000000008152506040805190810160405280600381526020017f48544b0000000000000000000000000000000000000000000000000000000000815250816004908051906020019062000088929190620000aa565b508060059080519060200190620000a1929190620000aa565b50505062000159565b828054600181600116156101000203166002900490600052602060002090601f016020900481019282601f10620000ed57805160ff19168380011785556200011e565b828001600101855582156200011e579182015b828111156200011d57825182559160200191906001019062000100565b5b5090506200012d919062000131565b5090565b6200015691905b808211156200015257600081600090555060010162000138565b5090565b90565b61294880620001696000396000f300608060405260043610610149576000357c0100000000000000000000000000000000000000000000000000000000900463ffffffff16806306fdde031461014e578063081812fc146101de578063095ea7b31461024b57806318160ddd146102985780631e7663bc146102c357806323b872dd146103405780632f745c59146103ad57806342842e0e1461040e5780634ca335241461047b5780634f558e79146105215780634f6ccce714610566578063531347de146105a757806358e66753146105ec5780636352211e146106ed57806367ccdf381461075a5780636da2427f146107c757806370a082311461086d57806395d89b41146108c4578063972041e414610954578063a22cb46514610995578063a9059cbb146109e4578063b88d4fde14610a31578063c87b56dd14610ae4578063dbe16c0714610b8a578063e985e9c514610c30575b600080fd5b34801561015a57600080fd5b50610163610cab565b6040518080602001828103825283818151815260200191508051906020019080838360005b838110156101a3578082015181840152602081019050610188565b50505050905090810190601f1680156101d05780820380516001836020036101000a031916815260200191505b509250505060405180910390f35b3480156101ea57600080fd5b5061020960048036038101908080359060200190929190505050610d4d565b604051808273ffffffffffffffffffffffffffffffffffffffff1673ffffffffffffffffffffffffffffffffffffffff16815260200191505060405180910390f35b34801561025757600080fd5b50610296600480360381019080803573ffffffffffffffffffffffffffffffffffffffff16906020019092919080359060200190929190505050610d8a565b005b3480156102a457600080fd5b506102ad610f50565b6040518082815260200191505060405180910390f35b3480156102cf57600080fd5b5061032a600480360381019080803590602001908201803590602001908080601f0160208091040260200160405190810160405280939291908181526020018383808284378201915050505050509192919290505050610f5d565b6040518082815260200191505060405180910390f35b34801561034c57600080fd5b506103ab600480360381019080803573ffffffffffffffffffffffffffffffffffffffff169060200190929190803573ffffffffffffffffffffffffffffffffffffffff16906020019092919080359060200190929190505050610fd2565b005b3480156103b957600080fd5b506103f8600480360381019080803573ffffffffffffffffffffffffffffffffffffffff169060200190929190803590602001909291905050506110e9565b6040518082815260200191505060405180910390f35b34801561041a57600080fd5b50610479600480360381019080803573ffffffffffffffffffffffffffffffffffffffff169060200190929190803573ffffffffffffffffffffffffffffffffffffffff16906020019092919080359060200190929190505050611160565b005b34801561048757600080fd5b506104a660048036038101908080359060200190929190505050611198565b6040518080602001828103825283818151815260200191508051906020019080838360005b838110156104e65780820151818401526020810190506104cb565b50505050905090810190601f1680156105135780820380516001836020036101000a031916815260200191505b509250505060405180910390f35b34801561052d57600080fd5b5061054c6004803603810190808035906020019092919050505061124d565b604051808215151515815260200191505060405180910390f35b34801561057257600080fd5b50610591600480360381019080803590602001909291905050506112be565b6040518082815260200191505060405180910390f35b3480156105b357600080fd5b506105d2600480360381019080803590602001909291905050506112f6565b604051808215151515815260200191505060405180910390f35b3480156105f857600080fd5b506106eb600480360381019080803590602001908201803590602001908080601f0160208091040260200160405190810160405280939291908181526020018383808284378201915050505050509192919290803515159060200190929190803590602001908201803590602001908080601f0160208091040260200160405190810160405280939291908181526020018383808284378201915050505050509192919290803590602001908201803590602001908080601f0160208091040260200160405190810160405280939291908181526020018383808284378201915050505050509192919290505050611320565b005b3480156106f957600080fd5b5061071860048036038101908080359060200190929190505050611534565b604051808273ffffffffffffffffffffffffffffffffffffffff1673ffffffffffffffffffffffffffffffffffffffff16815260200191505060405180910390f35b34801561076657600080fd5b506107856004803603810190808035906020019092919050505061159d565b604051808273ffffffffffffffffffffffffffffffffffffffff1673ffffffffffffffffffffffffffffffffffffffff16815260200191505060405180910390f35b3480156107d357600080fd5b506107f2600480360381019080803590602001909291905050506115da565b6040518080602001828103825283818151815260200191508051906020019080838360005b83811015610832578082015181840152602081019050610817565b50505050905090810190601f16801561085f5780820380516001836020036101000a031916815260200191505b509250505060405180910390f35b34801561087957600080fd5b506108ae600480360381019080803573ffffffffffffffffffffffffffffffffffffffff16906020019092919050505061168f565b6040518082815260200191505060405180910390f35b3480156108d057600080fd5b506108d96116d8565b6040518080602001828103825283818151815260200191508051906020019080838360005b838110156109195780820151818401526020810190506108fe565b50505050905090810190601f1680156109465780820380516001836020036101000a031916815260200191505b509250505060405180910390f35b34801561096057600080fd5b5061097f6004803603810190808035906020019092919050505061177a565b6040518082815260200191505060405180910390f35b3480156109a157600080fd5b506109e2600480360381019080803573ffffffffffffffffffffffffffffffffffffffff169060200190929190803515159060200190929190505050611797565b005b3480156109f057600080fd5b50610a2f600480360381019080803573ffffffffffffffffffffffffffffffffffffffff169060200190929190803590602001909291905050506118d3565b005b348015610a3d57600080fd5b50610ae2600480360381019080803573ffffffffffffffffffffffffffffffffffffffff169060200190929190803573ffffffffffffffffffffffffffffffffffffffff16906020019092919080359060200190929190803590602001908201803590602001908080601f0160208091040260200160405190810160405280939291908181526020018383808284378201915050505050509192919290505050611a83565b005b348015610af057600080fd5b50610b0f60048036038101908080359060200190929190505050611ac2565b6040518080602001828103825283818151815260200191508051906020019080838360005b83811015610b4f578082015181840152602081019050610b34565b50505050905090810190601f168015610b7c5780820380516001836020036101000a031916815260200191505b509250505060405180910390f35b348015610b9657600080fd5b50610bb560048036038101908080359060200190929190505050611b8b565b6040518080602001828103825283818151815260200191508051906020019080838360005b83811015610bf5578082015181840152602081019050610bda565b50505050905090810190601f168015610c225780820380516001836020036101000a031916815260200191505b509250505060405180910390f35b348015610c3c57600080fd5b50610c91600480360381019080803573ffffffffffffffffffffffffffffffffffffffff169060200190929190803573ffffffffffffffffffffffffffffffffffffffff169060200190929190505050611c40565b604051808215151515815260200191505060405180910390f35b606060048054600181600116156101000203166002900480601f016020809104026020016040519081016040528092919081815260200182805460018160011615610100020316600290048015610d435780601f10610d1857610100808354040283529160200191610d43565b820191906000526020600020905b815481529060010190602001808311610d2657829003601f168201915b5050505050905090565b60006001600083815260200190815260200160002060009054906101000a900473ffffffffffffffffffffffffffffffffffffffff169050919050565b6000610d9582611534565b90508073ffffffffffffffffffffffffffffffffffffffff168373ffffffffffffffffffffffffffffffffffffffff1614151515610dd257600080fd5b8073ffffffffffffffffffffffffffffffffffffffff163373ffffffffffffffffffffffffffffffffffffffff161480610e125750610e118133611c40565b5b1515610e1d57600080fd5b600073ffffffffffffffffffffffffffffffffffffffff16610e3e83610d4d565b73ffffffffffffffffffffffffffffffffffffffff16141580610e8e5750600073ffffffffffffffffffffffffffffffffffffffff168373ffffffffffffffffffffffffffffffffffffffff1614155b15610f4b57826001600084815260200190815260200160002060006101000a81548173ffffffffffffffffffffffffffffffffffffffff021916908373ffffffffffffffffffffffffffffffffffffffff1602179055508273ffffffffffffffffffffffffffffffffffffffff168173ffffffffffffffffffffffffffffffffffffffff167f8c5be1e5ebec7d5bd14f71427d1e84f3dd0314c0f7b2291e5b200ac8c7c3b925846040518082815260200191505060405180910390a35b505050565b6000600880549050905090565b6000600b826040518082805190602001908083835b602083101515610f975780518252602082019150602081019050602083039250610f72565b6001836020036101000a0380198251168184511680821785525050505050509050019150509081526020016040518091039020549050919050565b80610fdd3382611cd4565b1515610fe857600080fd5b600073ffffffffffffffffffffffffffffffffffffffff168473ffffffffffffffffffffffffffffffffffffffff161415151561102457600080fd5b600073ffffffffffffffffffffffffffffffffffffffff168373ffffffffffffffffffffffffffffffffffffffff161415151561106057600080fd5b61106a8483611d69565b6110748483611ed2565b61107e83836120ea565b8273ffffffffffffffffffffffffffffffffffffffff168473ffffffffffffffffffffffffffffffffffffffff167fddf252ad1be2c89b69c2b068fc378daa952ba7f163c4a11628f55a4df523b3ef846040518082815260200191505060405180910390a350505050565b60006110f48361168f565b8210151561110157600080fd5b600660008473ffffffffffffffffffffffffffffffffffffffff1673ffffffffffffffffffffffffffffffffffffffff1681526020019081526020016000208281548110151561114d57fe5b9060005260206000200154905092915050565b8061116b3382611cd4565b151561117657600080fd5b6111928484846020604051908101604052806000815250611a83565b50505050565b6060600e60008381526020019081526020016000208054600181600116156101000203166002900480601f0160208091040260200160405190810160405280929190818152602001828054600181600116156101000203166002900480156112415780601f1061121657610100808354040283529160200191611241565b820191906000526020600020905b81548152906001019060200180831161122457829003601f168201915b50505050509050919050565b60008060008084815260200190815260200160002060009054906101000a900473ffffffffffffffffffffffffffffffffffffffff169050600073ffffffffffffffffffffffffffffffffffffffff168173ffffffffffffffffffffffffffffffffffffffff161415915050919050565b60006112c8610f50565b821015156112d557600080fd5b6008828154811015156112e457fe5b90600052602060002001549050919050565b6000600d600083815260200190815260200160002060009054906101000a900460ff169050919050565b600080600b866040518082805190602001908083835b60208310151561135b5780518252602082019150602081019050602083039250611336565b6001836020036101000a03801982511681845116808217855250505050505090500191505090815260200160405180910390205414151561139b57600080fd5b60016008805490500190506113b033826121c1565b80600b866040518082805190602001908083835b6020831015156113e957805182526020820191506020810190506020830392506113c4565b6001836020036101000a03801982511681845116808217855250505050505090500191505090815260200160405180910390208190555084600c6000838152602001908152602001600020908051906020019061144792919061284b565b5083600d600083815260200190815260200160002060006101000a81548160ff02191690831515021790555082600e6000838152602001908152602001600020908051906020019061149a92919061284b565b5081600f600083815260200190815260200160002090805190602001906114c292919061284b565b50426010600083815260200190815260200160002081905550336011600083815260200190815260200160002060006101000a81548173ffffffffffffffffffffffffffffffffffffffff021916908373ffffffffffffffffffffffffffffffffffffffff1602179055505050505050565b60006014600083815260200190815260200160002060009054906101000a900460ff16151561156257600080fd5b6013600083815260200190815260200160002060009054906101000a900473ffffffffffffffffffffffffffffffffffffffff169050919050565b60006011600083815260200190815260200160002060009054906101000a900473ffffffffffffffffffffffffffffffffffffffff169050919050565b6060600f60008381526020019081526020016000208054600181600116156101000203166002900480601f0160208091040260200160405190810160405280929190818152602001828054600181600116156101000203166002900480156116835780601f1061165857610100808354040283529160200191611683565b820191906000526020600020905b81548152906001019060200180831161166657829003601f168201915b50505050509050919050565b6000601260008373ffffffffffffffffffffffffffffffffffffffff1673ffffffffffffffffffffffffffffffffffffffff168152602001908152602001600020549050919050565b606060058054600181600116156101000203166002900480601f0160208091040260200160405190810160405280929190818152602001828054600181600116156101000203166002900480156117705780601f1061174557610100808354040283529160200191611770565b820191906000526020600020905b81548152906001019060200180831161175357829003601f168201915b5050505050905090565b600060106000838152602001908152602001600020549050919050565b3373ffffffffffffffffffffffffffffffffffffffff168273ffffffffffffffffffffffffffffffffffffffff16141515156117d257600080fd5b80600360003373ffffffffffffffffffffffffffffffffffffffff1673ffffffffffffffffffffffffffffffffffffffff16815260200190815260200160002060008473ffffffffffffffffffffffffffffffffffffffff1673ffffffffffffffffffffffffffffffffffffffff16815260200190815260200160002060006101000a81548160ff0219169083151502179055508173ffffffffffffffffffffffffffffffffffffffff163373ffffffffffffffffffffffffffffffffffffffff167f17307eab39ab6107e8899845ad3d59bd9653f200f220920489ca2b5937696c3183604051808215151515815260200191505060405180910390a35050565b6000803391508390506014600084815260200190815260200160002060009054906101000a900460ff16151561190857600080fd5b61191183611534565b73ffffffffffffffffffffffffffffffffffffffff168273ffffffffffffffffffffffffffffffffffffffff1614151561194a57600080fd5b8073ffffffffffffffffffffffffffffffffffffffff168273ffffffffffffffffffffffffffffffffffffffff161415151561198557600080fd5b61198f8284612218565b6001601260008473ffffffffffffffffffffffffffffffffffffffff1673ffffffffffffffffffffffffffffffffffffffff16815260200190815260200160002060008282540392505081905550806013600085815260200190815260200160002060006101000a81548173ffffffffffffffffffffffffffffffffffffffff021916908373ffffffffffffffffffffffffffffffffffffffff1602179055506001601260008373ffffffffffffffffffffffffffffffffffffffff1673ffffffffffffffffffffffffffffffffffffffff1681526020019081526020016000206000828254019250508190555050505050565b81611a8e3382611cd4565b1515611a9957600080fd5b611aa4858585610fd2565b611ab0858585856122df565b1515611abb57600080fd5b5050505050565b6060611acd8261124d565b1515611ad857600080fd5b600a60008381526020019081526020016000208054600181600116156101000203166002900480601f016020809104026020016040519081016040528092919081815260200182805460018160011615610100020316600290048015611b7f5780601f10611b5457610100808354040283529160200191611b7f565b820191906000526020600020905b815481529060010190602001808311611b6257829003601f168201915b50505050509050919050565b6060600c60008381526020019081526020016000208054600181600116156101000203166002900480601f016020809104026020016040519081016040528092919081815260200182805460018160011615610100020316600290048015611c345780601f10611c0957610100808354040283529160200191611c34565b820191906000526020600020905b815481529060010190602001808311611c1757829003601f168201915b50505050509050919050565b6000600360008473ffffffffffffffffffffffffffffffffffffffff1673ffffffffffffffffffffffffffffffffffffffff16815260200190815260200160002060008373ffffffffffffffffffffffffffffffffffffffff1673ffffffffffffffffffffffffffffffffffffffff16815260200190815260200160002060009054906101000a900460ff16905092915050565b600080611ce083611534565b90508073ffffffffffffffffffffffffffffffffffffffff168473ffffffffffffffffffffffffffffffffffffffff161480611d4f57508373ffffffffffffffffffffffffffffffffffffffff16611d3784610d4d565b73ffffffffffffffffffffffffffffffffffffffff16145b80611d605750611d5f8185611c40565b5b91505092915050565b8173ffffffffffffffffffffffffffffffffffffffff16611d8982611534565b73ffffffffffffffffffffffffffffffffffffffff16141515611dab57600080fd5b600073ffffffffffffffffffffffffffffffffffffffff166001600083815260200190815260200160002060009054906101000a900473ffffffffffffffffffffffffffffffffffffffff1673ffffffffffffffffffffffffffffffffffffffff16141515611ece5760006001600083815260200190815260200160002060006101000a81548173ffffffffffffffffffffffffffffffffffffffff021916908373ffffffffffffffffffffffffffffffffffffffff160217905550600073ffffffffffffffffffffffffffffffffffffffff168273ffffffffffffffffffffffffffffffffffffffff167f8c5be1e5ebec7d5bd14f71427d1e84f3dd0314c0f7b2291e5b200ac8c7c3b925836040518082815260200191505060405180910390a35b5050565b6000806000611ee185856124cd565b60076000858152602001908152602001600020549250611f4d6001600660008873ffffffffffffffffffffffffffffffffffffffff1673ffffffffffffffffffffffffffffffffffffffff168152602001908152602001600020805490506125fb90919063ffffffff16565b9150600660008673ffffffffffffffffffffffffffffffffffffffff1673ffffffffffffffffffffffffffffffffffffffff16815260200190815260200160002082815481101515611f9b57fe5b9060005260206000200154905080600660008773ffffffffffffffffffffffffffffffffffffffff1673ffffffffffffffffffffffffffffffffffffffff16815260200190815260200160002084815481101515611ff557fe5b90600052602060002001819055506000600660008773ffffffffffffffffffffffffffffffffffffffff1673ffffffffffffffffffffffffffffffffffffffff1681526020019081526020016000208381548110151561205157fe5b9060005260206000200181905550600660008673ffffffffffffffffffffffffffffffffffffffff1673ffffffffffffffffffffffffffffffffffffffff1681526020019081526020016000208054809190600190036120b191906128cb565b50600060076000868152602001908152602001600020819055508260076000838152602001908152602001600020819055505050505050565b60006120f68383612614565b600660008473ffffffffffffffffffffffffffffffffffffffff1673ffffffffffffffffffffffffffffffffffffffff168152602001908152602001600020805490509050600660008473ffffffffffffffffffffffffffffffffffffffff1673ffffffffffffffffffffffffffffffffffffffff168152602001908152602001600020829080600181540180825580915050906001820390600052602060002001600090919290919091505550806007600084815260200190815260200160002081905550505050565b6121cb828261276c565b600880549050600960008381526020019081526020016000208190555060088190806001815401808255809150509060018203906000526020600020016000909192909190915055505050565b60008090505b81601560008573ffffffffffffffffffffffffffffffffffffffff1673ffffffffffffffffffffffffffffffffffffffff1681526020019081526020016000206000838152602001908152602001600020541415156122da576000601560008573ffffffffffffffffffffffffffffffffffffffff1673ffffffffffffffffffffffffffffffffffffffff168152602001908152602001600020600083815260200190815260200160002081905550808060010191505061221e565b505050565b6000806123018573ffffffffffffffffffffffffffffffffffffffff1661281c565b151561231057600191506124c4565b8473ffffffffffffffffffffffffffffffffffffffff1663f0b9e5ba8786866040518463ffffffff167c0100000000000000000000000000000000000000000000000000000000028152600401808473ffffffffffffffffffffffffffffffffffffffff1673ffffffffffffffffffffffffffffffffffffffff16815260200183815260200180602001828103825283818151815260200191508051906020019080838360005b838110156123d25780820151818401526020810190506123b7565b50505050905090810190601f1680156123ff5780820380516001836020036101000a031916815260200191505b50945050505050602060405180830381600087803b15801561242057600080fd5b505af1158015612434573d6000803e3d6000fd5b505050506040513d602081101561244a57600080fd5b8101908080519060200190929190505050905063f0b9e5ba7c0100000000000000000000000000000000000000000000000000000000027bffffffffffffffffffffffffffffffffffffffffffffffffffffffff1916817bffffffffffffffffffffffffffffffffffffffffffffffffffffffff19161491505b50949350505050565b8173ffffffffffffffffffffffffffffffffffffffff166124ed82611534565b73ffffffffffffffffffffffffffffffffffffffff1614151561250f57600080fd5b6125626001600260008573ffffffffffffffffffffffffffffffffffffffff1673ffffffffffffffffffffffffffffffffffffffff168152602001908152602001600020546125fb90919063ffffffff16565b600260008473ffffffffffffffffffffffffffffffffffffffff1673ffffffffffffffffffffffffffffffffffffffff16815260200190815260200160002081905550600080600083815260200190815260200160002060006101000a81548173ffffffffffffffffffffffffffffffffffffffff021916908373ffffffffffffffffffffffffffffffffffffffff1602179055505050565b600082821115151561260957fe5b818303905092915050565b600073ffffffffffffffffffffffffffffffffffffffff1660008083815260200190815260200160002060009054906101000a900473ffffffffffffffffffffffffffffffffffffffff1673ffffffffffffffffffffffffffffffffffffffff1614151561268157600080fd5b8160008083815260200190815260200160002060006101000a81548173ffffffffffffffffffffffffffffffffffffffff021916908373ffffffffffffffffffffffffffffffffffffffff1602179055506127256001600260008573ffffffffffffffffffffffffffffffffffffffff1673ffffffffffffffffffffffffffffffffffffffff1681526020019081526020016000205461282f90919063ffffffff16565b600260008473ffffffffffffffffffffffffffffffffffffffff1673ffffffffffffffffffffffffffffffffffffffff168152602001908152602001600020819055505050565b600073ffffffffffffffffffffffffffffffffffffffff168273ffffffffffffffffffffffffffffffffffffffff16141515156127a857600080fd5b6127b282826120ea565b8173ffffffffffffffffffffffffffffffffffffffff16600073ffffffffffffffffffffffffffffffffffffffff167fddf252ad1be2c89b69c2b068fc378daa952ba7f163c4a11628f55a4df523b3ef836040518082815260200191505060405180910390a35050565b600080823b905060008111915050919050565b6000818301905082811015151561284257fe5b80905092915050565b828054600181600116156101000203166002900490600052602060002090601f016020900481019282601f1061288c57805160ff19168380011785556128ba565b828001600101855582156128ba579182015b828111156128b957825182559160200191906001019061289e565b5b5090506128c791906128f7565b5090565b8154818355818111156128f2578183600052602060002091820191016128f191906128f7565b5b505050565b61291991905b808211156129155760008160009055506001016128fd565b5090565b905600a165627a7a72305820a69b238393aed428e7b291b374565d9a5a121278a5536635b4f30d31bea8267d0029",
  "source": "pragma solidity ^0.4.24;\n\nimport 'zeppelin-solidity/contracts/token/ERC721/ERC721Token.sol';\n\ncontract Hack721Token is ERC721Token(\"Hack721Token\", \"HTK\") {\n\n\tmapping(string => uint256) internal nameToTokenId;\n\tmapping(uint256 => string) internal tokenIdToName;\n\tmapping(uint256 => bool) internal tokenIdToSolidaire;\n\tmapping(uint256 => string) internal tokenIdToAchievement;\n\tmapping(uint256 => string) internal tokenIdToPlatform;\n\tmapping(uint256 => uint) internal tokenIdToTime;\n\tmapping(uint256 => address) internal tokenIdToAddress;\n\tmapping(address => uint) private balances;\n\tmapping(uint256 => address) private tokenOwners;\n  \tmapping(uint256 => bool) private tokenExists;\n\tmapping(address => mapping(uint256 => uint256)) private ownerTokens;\n\n\tfunction create(string name, bool solidaire,  string achievment, string plateforme) public {\n\t\trequire(nameToTokenId[name] == 0);\n\t\tuint256 tokenId = allTokens.length + 1;\n\t\t_mint(msg.sender, tokenId);\n\t\tnameToTokenId[name] = tokenId;\n\t\ttokenIdToName[tokenId] = name;\n\t\ttokenIdToSolidaire[tokenId] = solidaire;\n\t\ttokenIdToAchievement[tokenId] = achievment;\n\t\ttokenIdToPlatform[tokenId] = plateforme;\n\t\ttokenIdToTime[tokenId] = now;\n\t\ttokenIdToAddress[tokenId] = msg.sender;\n\t}\n\n\tfunction ownerOf(uint256 _tokenId) public constant returns (address owner) {\n\t    require(tokenExists[_tokenId]);\n\t    return tokenOwners[_tokenId];\n  \t}\n\n\tfunction transfer(address _to, uint256 _tokenId) public{\n\t\taddress currentOwner = msg.sender;\n\t\taddress newOwner = _to;\n\t\trequire(tokenExists[_tokenId]);\n\t\trequire(currentOwner == ownerOf(_tokenId));\n\t\trequire(currentOwner != newOwner);\n\t\tremoveFromTokenList(currentOwner, _tokenId);\n\t\tbalances[currentOwner] -= 1;\n\t\ttokenOwners[_tokenId] = newOwner;\n\t\tbalances[newOwner] += 1;\n \t}\n\n\tfunction removeFromTokenList(address owner, uint256 _tokenId) private {\n\t\tfor(uint256 i = 0;ownerTokens[owner][i] != _tokenId;i++){\n\t\t  ownerTokens[owner][i] = 0;\n\t\t}\n  \t}\n\n\tfunction balanceOf(address _owner) public constant returns (uint balance){\n\t\treturn balances[_owner];\n    }\n\n\tfunction getTokenName(uint256 tokenId) view public returns (string) {\n\t\treturn tokenIdToName[tokenId];\n\t}\n\n\tfunction getTokenId(string name) view public returns (uint) {\n\t\treturn nameToTokenId[name];\n\t}\n\n\tfunction getTokenSolidaire(uint256 tokenId) view public returns (bool) {\n\t\treturn tokenIdToSolidaire[tokenId];\n\t}\n\n\tfunction getTokenAchievement(uint256 tokenId) view public returns (string) {\n\t\treturn tokenIdToAchievement[tokenId];\n\t}\n\n\tfunction getTokenPlatform(uint256 tokenId) view public returns (string) {\n\t\treturn tokenIdToPlatform[tokenId];\n\t}\n\n\tfunction getTokenTime(uint256 tokenId) view public returns (uint) {\n\t\treturn tokenIdToTime[tokenId];\n\t}\n\n\tfunction getTokenAddress(uint256 tokenId) view public returns (address) {\n\t\treturn tokenIdToAddress[tokenId];\n\t}\n}\n",
  "sourcePath": "/Users/golfier/Documents/Personnel/git/hack721/contracts/Hack721Token.sol",
  "compiler": {
    "name": "solc",
    "version": "0.4.24+commit.e67f0147.Emscripten.clang"
  },
  "schemaVersion": "2.0.1",
  "updatedAt": "2018-07-01T13:51:57.923Z"
}