{
  "contractName": "Hack721Token",
  "abi": [
    {
      "constant": true,
      "inputs": [],
      "name": "name",
      "outputs": [
        {
          "name": "",
          "type": "string"
        }
      ],
      "payable": false,
      "stateMutability": "view",
      "type": "function"
    },
    {
      "constant": true,
      "inputs": [
        {
          "name": "_tokenId",
          "type": "uint256"
        }
      ],
      "name": "getApproved",
      "outputs": [
        {
          "name": "",
          "type": "address"
        }
      ],
      "payable": false,
      "stateMutability": "view",
      "type": "function"
    },
    {
      "constant": false,
      "inputs": [
        {
          "name": "_to",
          "type": "address"
        },
        {
          "name": "_tokenId",
          "type": "uint256"
        }
      ],
      "name": "approve",
      "outputs": [],
      "payable": false,
      "stateMutability": "nonpayable",
      "type": "function"
    },
    {
      "constant": true,
      "inputs": [],
      "name": "totalSupply",
      "outputs": [
        {
          "name": "",
          "type": "uint256"
        }
      ],
      "payable": false,
      "stateMutability": "view",
      "type": "function"
    },
    {
      "constant": false,
      "inputs": [
        {
          "name": "_from",
          "type": "address"
        },
        {
          "name": "_to",
          "type": "address"
        },
        {
          "name": "_tokenId",
          "type": "uint256"
        }
      ],
      "name": "transferFrom",
      "outputs": [],
      "payable": false,
      "stateMutability": "nonpayable",
      "type": "function"
    },
    {
      "constant": true,
      "inputs": [
        {
          "name": "_owner",
          "type": "address"
        },
        {
          "name": "_index",
          "type": "uint256"
        }
      ],
      "name": "tokenOfOwnerByIndex",
      "outputs": [
        {
          "name": "",
          "type": "uint256"
        }
      ],
      "payable": false,
      "stateMutability": "view",
      "type": "function"
    },
    {
      "constant": false,
      "inputs": [
        {
          "name": "_from",
          "type": "address"
        },
        {
          "name": "_to",
          "type": "address"
        },
        {
          "name": "_tokenId",
          "type": "uint256"
        }
      ],
      "name": "safeTransferFrom",
      "outputs": [],
      "payable": false,
      "stateMutability": "nonpayable",
      "type": "function"
    },
    {
      "constant": true,
      "inputs": [
        {
          "name": "_tokenId",
          "type": "uint256"
        }
      ],
      "name": "exists",
      "outputs": [
        {
          "name": "",
          "type": "bool"
        }
      ],
      "payable": false,
      "stateMutability": "view",
      "type": "function"
    },
    {
      "constant": true,
      "inputs": [
        {
          "name": "_index",
          "type": "uint256"
        }
      ],
      "name": "tokenByIndex",
      "outputs": [
        {
          "name": "",
          "type": "uint256"
        }
      ],
      "payable": false,
      "stateMutability": "view",
      "type": "function"
    },
    {
      "constant": true,
      "inputs": [
        {
          "name": "_tokenId",
          "type": "uint256"
        }
      ],
      "name": "ownerOf",
      "outputs": [
        {
          "name": "",
          "type": "address"
        }
      ],
      "payable": false,
      "stateMutability": "view",
      "type": "function"
    },
    {
      "constant": true,
      "inputs": [
        {
          "name": "_owner",
          "type": "address"
        }
      ],
      "name": "balanceOf",
      "outputs": [
        {
          "name": "",
          "type": "uint256"
        }
      ],
      "payable": false,
      "stateMutability": "view",
      "type": "function"
    },
    {
      "constant": true,
      "inputs": [],
      "name": "symbol",
      "outputs": [
        {
          "name": "",
          "type": "string"
        }
      ],
      "payable": false,
      "stateMutability": "view",
      "type": "function"
    },
    {
      "constant": false,
      "inputs": [
        {
          "name": "_to",
          "type": "address"
        },
        {
          "name": "_approved",
          "type": "bool"
        }
      ],
      "name": "setApprovalForAll",
      "outputs": [],
      "payable": false,
      "stateMutability": "nonpayable",
      "type": "function"
    },
    {
      "constant": false,
      "inputs": [
        {
          "name": "_from",
          "type": "address"
        },
        {
          "name": "_to",
          "type": "address"
        },
        {
          "name": "_tokenId",
          "type": "uint256"
        },
        {
          "name": "_data",
          "type": "bytes"
        }
      ],
      "name": "safeTransferFrom",
      "outputs": [],
      "payable": false,
      "stateMutability": "nonpayable",
      "type": "function"
    },
    {
      "constant": true,
      "inputs": [
        {
          "name": "_tokenId",
          "type": "uint256"
        }
      ],
      "name": "tokenURI",
      "outputs": [
        {
          "name": "",
          "type": "string"
        }
      ],
      "payable": false,
      "stateMutability": "view",
      "type": "function"
    },
    {
      "constant": true,
      "inputs": [
        {
          "name": "_owner",
          "type": "address"
        },
        {
          "name": "_operator",
          "type": "address"
        }
      ],
      "name": "isApprovedForAll",
      "outputs": [
        {
          "name": "",
          "type": "bool"
        }
      ],
      "payable": false,
      "stateMutability": "view",
      "type": "function"
    },
    {
      "anonymous": false,
      "inputs": [
        {
          "indexed": true,
          "name": "_from",
          "type": "address"
        },
        {
          "indexed": true,
          "name": "_to",
          "type": "address"
        },
        {
          "indexed": false,
          "name": "_tokenId",
          "type": "uint256"
        }
      ],
      "name": "Transfer",
      "type": "event"
    },
    {
      "anonymous": false,
      "inputs": [
        {
          "indexed": true,
          "name": "_owner",
          "type": "address"
        },
        {
          "indexed": true,
          "name": "_approved",
          "type": "address"
        },
        {
          "indexed": false,
          "name": "_tokenId",
          "type": "uint256"
        }
      ],
      "name": "Approval",
      "type": "event"
    },
    {
      "anonymous": false,
      "inputs": [
        {
          "indexed": true,
          "name": "_owner",
          "type": "address"
        },
        {
          "indexed": true,
          "name": "_operator",
          "type": "address"
        },
        {
          "indexed": false,
          "name": "_approved",
          "type": "bool"
        }
      ],
      "name": "ApprovalForAll",
      "type": "event"
    },
    {
      "constant": false,
      "inputs": [
        {
          "name": "name",
          "type": "string"
        },
        {
          "name": "solidaire",
          "type": "bool"
        },
        {
          "name": "achievment",
          "type": "string"
        },
        {
          "name": "plateforme",
          "type": "string"
        }
      ],
      "name": "create",
      "outputs": [],
      "payable": false,
      "stateMutability": "nonpayable",
      "type": "function"
    },
    {
      "constant": true,
      "inputs": [
        {
          "name": "tokenId",
          "type": "uint256"
        }
      ],
      "name": "getTokenName",
      "outputs": [
        {
          "name": "",
          "type": "string"
        }
      ],
      "payable": false,
      "stateMutability": "view",
      "type": "function"
    },
    {
      "constant": true,
      "inputs": [
        {
          "name": "name",
          "type": "string"
        }
      ],
      "name": "getTokenId",
      "outputs": [
        {
          "name": "",
          "type": "uint256"
        }
      ],
      "payable": false,
      "stateMutability": "view",
      "type": "function"
    },
    {
      "constant": true,
      "inputs": [
        {
          "name": "tokenId",
          "type": "uint256"
        }
      ],
      "name": "getTokenSolidaire",
      "outputs": [
        {
          "name": "",
          "type": "bool"
        }
      ],
      "payable": false,
      "stateMutability": "view",
      "type": "function"
    },
    {
      "constant": true,
      "inputs": [
        {
          "name": "tokenId",
          "type": "uint256"
        }
      ],
      "name": "getTokenAchievement",
      "outputs": [
        {
          "name": "",
          "type": "string"
        }
      ],
      "payable": false,
      "stateMutability": "view",
      "type": "function"
    },
    {
      "constant": true,
      "inputs": [
        {
          "name": "tokenId",
          "type": "uint256"
        }
      ],
      "name": "getTokenPlatform",
      "outputs": [
        {
          "name": "",
          "type": "string"
        }
      ],
      "payable": false,
      "stateMutability": "view",
      "type": "function"
    },
    {
      "constant": true,
      "inputs": [
        {
          "name": "tokenId",
          "type": "uint256"
        }
      ],
      "name": "getTokenTime",
      "outputs": [
        {
          "name": "",
          "type": "uint256"
        }
      ],
      "payable": false,
      "stateMutability": "view",
      "type": "function"
    },
    {
      "constant": true,
      "inputs": [
        {
          "name": "tokenId",
          "type": "uint256"
        }
      ],
      "name": "getTokenAddress",
      "outputs": [
        {
          "name": "",
          "type": "address"
        }
      ],
      "payable": false,
      "stateMutability": "view",
      "type": "function"
    }
  ],
  "bytecode": "0x60806040526040805190810160405280600c81526020017f4861636b373231546f6b656e00000000000000000000000000000000000000008152506040805190810160405280600381526020017f48544b0000000000000000000000000000000000000000000000000000000000815250816004908051906020019062000088929190620000aa565b508060059080519060200190620000a1929190620000aa565b50505062000159565b828054600181600116156101000203166002900490600052602060002090601f016020900481019282601f10620000ed57805160ff19168380011785556200011e565b828001600101855582156200011e579182015b828111156200011d57825182559160200191906001019062000100565b5b5090506200012d919062000131565b5090565b6200015691905b808211156200015257600081600090555060010162000138565b5090565b90565b6126c880620001696000396000f30060806040526004361061013e576000357c0100000000000000000000000000000000000000000000000000000000900463ffffffff16806306fdde0314610143578063081812fc146101d3578063095ea7b31461024057806318160ddd1461028d5780631e7663bc146102b857806323b872dd146103355780632f745c59146103a257806342842e0e146104035780634ca33524146104705780634f558e79146105165780634f6ccce71461055b578063531347de1461059c57806358e66753146105e15780636352211e146106e257806367ccdf381461074f5780636da2427f146107bc57806370a082311461086257806395d89b41146108b9578063972041e414610949578063a22cb4651461098a578063b88d4fde146109d9578063c87b56dd14610a8c578063dbe16c0714610b32578063e985e9c514610bd8575b600080fd5b34801561014f57600080fd5b50610158610c53565b6040518080602001828103825283818151815260200191508051906020019080838360005b8381101561019857808201518184015260208101905061017d565b50505050905090810190601f1680156101c55780820380516001836020036101000a031916815260200191505b509250505060405180910390f35b3480156101df57600080fd5b506101fe60048036038101908080359060200190929190505050610cf5565b604051808273ffffffffffffffffffffffffffffffffffffffff1673ffffffffffffffffffffffffffffffffffffffff16815260200191505060405180910390f35b34801561024c57600080fd5b5061028b600480360381019080803573ffffffffffffffffffffffffffffffffffffffff16906020019092919080359060200190929190505050610d32565b005b34801561029957600080fd5b506102a2610ef8565b6040518082815260200191505060405180910390f35b3480156102c457600080fd5b5061031f600480360381019080803590602001908201803590602001908080601f0160208091040260200160405190810160405280939291908181526020018383808284378201915050505050509192919290505050610f05565b6040518082815260200191505060405180910390f35b34801561034157600080fd5b506103a0600480360381019080803573ffffffffffffffffffffffffffffffffffffffff169060200190929190803573ffffffffffffffffffffffffffffffffffffffff16906020019092919080359060200190929190505050610f7a565b005b3480156103ae57600080fd5b506103ed600480360381019080803573ffffffffffffffffffffffffffffffffffffffff16906020019092919080359060200190929190505050611091565b6040518082815260200191505060405180910390f35b34801561040f57600080fd5b5061046e600480360381019080803573ffffffffffffffffffffffffffffffffffffffff169060200190929190803573ffffffffffffffffffffffffffffffffffffffff16906020019092919080359060200190929190505050611108565b005b34801561047c57600080fd5b5061049b60048036038101908080359060200190929190505050611140565b6040518080602001828103825283818151815260200191508051906020019080838360005b838110156104db5780820151818401526020810190506104c0565b50505050905090810190601f1680156105085780820380516001836020036101000a031916815260200191505b509250505060405180910390f35b34801561052257600080fd5b50610541600480360381019080803590602001909291905050506111f5565b604051808215151515815260200191505060405180910390f35b34801561056757600080fd5b5061058660048036038101908080359060200190929190505050611266565b6040518082815260200191505060405180910390f35b3480156105a857600080fd5b506105c76004803603810190808035906020019092919050505061129e565b604051808215151515815260200191505060405180910390f35b3480156105ed57600080fd5b506106e0600480360381019080803590602001908201803590602001908080601f0160208091040260200160405190810160405280939291908181526020018383808284378201915050505050509192919290803515159060200190929190803590602001908201803590602001908080601f0160208091040260200160405190810160405280939291908181526020018383808284378201915050505050509192919290803590602001908201803590602001908080601f01602080910402602001604051908101604052809392919081815260200183838082843782019150505050505091929192905050506112c8565b005b3480156106ee57600080fd5b5061070d600480360381019080803590602001909291905050506114dc565b604051808273ffffffffffffffffffffffffffffffffffffffff1673ffffffffffffffffffffffffffffffffffffffff16815260200191505060405180910390f35b34801561075b57600080fd5b5061077a60048036038101908080359060200190929190505050611559565b604051808273ffffffffffffffffffffffffffffffffffffffff1673ffffffffffffffffffffffffffffffffffffffff16815260200191505060405180910390f35b3480156107c857600080fd5b506107e760048036038101908080359060200190929190505050611596565b6040518080602001828103825283818151815260200191508051906020019080838360005b8381101561082757808201518184015260208101905061080c565b50505050905090810190601f1680156108545780820380516001836020036101000a031916815260200191505b509250505060405180910390f35b34801561086e57600080fd5b506108a3600480360381019080803573ffffffffffffffffffffffffffffffffffffffff16906020019092919050505061164b565b6040518082815260200191505060405180910390f35b3480156108c557600080fd5b506108ce6116cf565b6040518080602001828103825283818151815260200191508051906020019080838360005b8381101561090e5780820151818401526020810190506108f3565b50505050905090810190601f16801561093b5780820380516001836020036101000a031916815260200191505b509250505060405180910390f35b34801561095557600080fd5b5061097460048036038101908080359060200190929190505050611771565b6040518082815260200191505060405180910390f35b34801561099657600080fd5b506109d7600480360381019080803573ffffffffffffffffffffffffffffffffffffffff16906020019092919080351515906020019092919050505061178e565b005b3480156109e557600080fd5b50610a8a600480360381019080803573ffffffffffffffffffffffffffffffffffffffff169060200190929190803573ffffffffffffffffffffffffffffffffffffffff16906020019092919080359060200190929190803590602001908201803590602001908080601f01602080910402602001604051908101604052809392919081815260200183838082843782019150505050505091929192905050506118ca565b005b348015610a9857600080fd5b50610ab760048036038101908080359060200190929190505050611909565b6040518080602001828103825283818151815260200191508051906020019080838360005b83811015610af7578082015181840152602081019050610adc565b50505050905090810190601f168015610b245780820380516001836020036101000a031916815260200191505b509250505060405180910390f35b348015610b3e57600080fd5b50610b5d600480360381019080803590602001909291905050506119d2565b6040518080602001828103825283818151815260200191508051906020019080838360005b83811015610b9d578082015181840152602081019050610b82565b50505050905090810190601f168015610bca5780820380516001836020036101000a031916815260200191505b509250505060405180910390f35b348015610be457600080fd5b50610c39600480360381019080803573ffffffffffffffffffffffffffffffffffffffff169060200190929190803573ffffffffffffffffffffffffffffffffffffffff169060200190929190505050611a87565b604051808215151515815260200191505060405180910390f35b606060048054600181600116156101000203166002900480601f016020809104026020016040519081016040528092919081815260200182805460018160011615610100020316600290048015610ceb5780601f10610cc057610100808354040283529160200191610ceb565b820191906000526020600020905b815481529060010190602001808311610cce57829003601f168201915b5050505050905090565b60006001600083815260200190815260200160002060009054906101000a900473ffffffffffffffffffffffffffffffffffffffff169050919050565b6000610d3d826114dc565b90508073ffffffffffffffffffffffffffffffffffffffff168373ffffffffffffffffffffffffffffffffffffffff1614151515610d7a57600080fd5b8073ffffffffffffffffffffffffffffffffffffffff163373ffffffffffffffffffffffffffffffffffffffff161480610dba5750610db98133611a87565b5b1515610dc557600080fd5b600073ffffffffffffffffffffffffffffffffffffffff16610de683610cf5565b73ffffffffffffffffffffffffffffffffffffffff16141580610e365750600073ffffffffffffffffffffffffffffffffffffffff168373ffffffffffffffffffffffffffffffffffffffff1614155b15610ef357826001600084815260200190815260200160002060006101000a81548173ffffffffffffffffffffffffffffffffffffffff021916908373ffffffffffffffffffffffffffffffffffffffff1602179055508273ffffffffffffffffffffffffffffffffffffffff168173ffffffffffffffffffffffffffffffffffffffff167f8c5be1e5ebec7d5bd14f71427d1e84f3dd0314c0f7b2291e5b200ac8c7c3b925846040518082815260200191505060405180910390a35b505050565b6000600880549050905090565b6000600b826040518082805190602001908083835b602083101515610f3f5780518252602082019150602081019050602083039250610f1a565b6001836020036101000a0380198251168184511680821785525050505050509050019150509081526020016040518091039020549050919050565b80610f853382611b1b565b1515610f9057600080fd5b600073ffffffffffffffffffffffffffffffffffffffff168473ffffffffffffffffffffffffffffffffffffffff1614151515610fcc57600080fd5b600073ffffffffffffffffffffffffffffffffffffffff168373ffffffffffffffffffffffffffffffffffffffff161415151561100857600080fd5b6110128483611bb0565b61101c8483611d19565b6110268383611f31565b8273ffffffffffffffffffffffffffffffffffffffff168473ffffffffffffffffffffffffffffffffffffffff167fddf252ad1be2c89b69c2b068fc378daa952ba7f163c4a11628f55a4df523b3ef846040518082815260200191505060405180910390a350505050565b600061109c8361164b565b821015156110a957600080fd5b600660008473ffffffffffffffffffffffffffffffffffffffff1673ffffffffffffffffffffffffffffffffffffffff168152602001908152602001600020828154811015156110f557fe5b9060005260206000200154905092915050565b806111133382611b1b565b151561111e57600080fd5b61113a84848460206040519081016040528060008152506118ca565b50505050565b6060600e60008381526020019081526020016000208054600181600116156101000203166002900480601f0160208091040260200160405190810160405280929190818152602001828054600181600116156101000203166002900480156111e95780601f106111be576101008083540402835291602001916111e9565b820191906000526020600020905b8154815290600101906020018083116111cc57829003601f168201915b50505050509050919050565b60008060008084815260200190815260200160002060009054906101000a900473ffffffffffffffffffffffffffffffffffffffff169050600073ffffffffffffffffffffffffffffffffffffffff168173ffffffffffffffffffffffffffffffffffffffff161415915050919050565b6000611270610ef8565b8210151561127d57600080fd5b60088281548110151561128c57fe5b90600052602060002001549050919050565b6000600d600083815260200190815260200160002060009054906101000a900460ff169050919050565b600080600b866040518082805190602001908083835b60208310151561130357805182526020820191506020810190506020830392506112de565b6001836020036101000a03801982511681845116808217855250505050505090500191505090815260200160405180910390205414151561134357600080fd5b60016008805490500190506113583382612008565b80600b866040518082805190602001908083835b602083101515611391578051825260208201915060208101905060208303925061136c565b6001836020036101000a03801982511681845116808217855250505050505090500191505090815260200160405180910390208190555084600c600083815260200190815260200160002090805190602001906113ef9291906125cb565b5083600d600083815260200190815260200160002060006101000a81548160ff02191690831515021790555082600e600083815260200190815260200160002090805190602001906114429291906125cb565b5081600f6000838152602001908152602001600020908051906020019061146a9291906125cb565b50426010600083815260200190815260200160002081905550336011600083815260200190815260200160002060006101000a81548173ffffffffffffffffffffffffffffffffffffffff021916908373ffffffffffffffffffffffffffffffffffffffff1602179055505050505050565b60008060008084815260200190815260200160002060009054906101000a900473ffffffffffffffffffffffffffffffffffffffff169050600073ffffffffffffffffffffffffffffffffffffffff168173ffffffffffffffffffffffffffffffffffffffff161415151561155057600080fd5b80915050919050565b60006011600083815260200190815260200160002060009054906101000a900473ffffffffffffffffffffffffffffffffffffffff169050919050565b6060600f60008381526020019081526020016000208054600181600116156101000203166002900480601f01602080910402602001604051908101604052809291908181526020018280546001816001161561010002031660029004801561163f5780601f106116145761010080835404028352916020019161163f565b820191906000526020600020905b81548152906001019060200180831161162257829003601f168201915b50505050509050919050565b60008073ffffffffffffffffffffffffffffffffffffffff168273ffffffffffffffffffffffffffffffffffffffff161415151561168857600080fd5b600260008373ffffffffffffffffffffffffffffffffffffffff1673ffffffffffffffffffffffffffffffffffffffff168152602001908152602001600020549050919050565b606060058054600181600116156101000203166002900480601f0160208091040260200160405190810160405280929190818152602001828054600181600116156101000203166002900480156117675780601f1061173c57610100808354040283529160200191611767565b820191906000526020600020905b81548152906001019060200180831161174a57829003601f168201915b5050505050905090565b600060106000838152602001908152602001600020549050919050565b3373ffffffffffffffffffffffffffffffffffffffff168273ffffffffffffffffffffffffffffffffffffffff16141515156117c957600080fd5b80600360003373ffffffffffffffffffffffffffffffffffffffff1673ffffffffffffffffffffffffffffffffffffffff16815260200190815260200160002060008473ffffffffffffffffffffffffffffffffffffffff1673ffffffffffffffffffffffffffffffffffffffff16815260200190815260200160002060006101000a81548160ff0219169083151502179055508173ffffffffffffffffffffffffffffffffffffffff163373ffffffffffffffffffffffffffffffffffffffff167f17307eab39ab6107e8899845ad3d59bd9653f200f220920489ca2b5937696c3183604051808215151515815260200191505060405180910390a35050565b816118d53382611b1b565b15156118e057600080fd5b6118eb858585610f7a565b6118f78585858561205f565b151561190257600080fd5b5050505050565b6060611914826111f5565b151561191f57600080fd5b600a60008381526020019081526020016000208054600181600116156101000203166002900480601f0160208091040260200160405190810160405280929190818152602001828054600181600116156101000203166002900480156119c65780601f1061199b576101008083540402835291602001916119c6565b820191906000526020600020905b8154815290600101906020018083116119a957829003601f168201915b50505050509050919050565b6060600c60008381526020019081526020016000208054600181600116156101000203166002900480601f016020809104026020016040519081016040528092919081815260200182805460018160011615610100020316600290048015611a7b5780601f10611a5057610100808354040283529160200191611a7b565b820191906000526020600020905b815481529060010190602001808311611a5e57829003601f168201915b50505050509050919050565b6000600360008473ffffffffffffffffffffffffffffffffffffffff1673ffffffffffffffffffffffffffffffffffffffff16815260200190815260200160002060008373ffffffffffffffffffffffffffffffffffffffff1673ffffffffffffffffffffffffffffffffffffffff16815260200190815260200160002060009054906101000a900460ff16905092915050565b600080611b27836114dc565b90508073ffffffffffffffffffffffffffffffffffffffff168473ffffffffffffffffffffffffffffffffffffffff161480611b9657508373ffffffffffffffffffffffffffffffffffffffff16611b7e84610cf5565b73ffffffffffffffffffffffffffffffffffffffff16145b80611ba75750611ba68185611a87565b5b91505092915050565b8173ffffffffffffffffffffffffffffffffffffffff16611bd0826114dc565b73ffffffffffffffffffffffffffffffffffffffff16141515611bf257600080fd5b600073ffffffffffffffffffffffffffffffffffffffff166001600083815260200190815260200160002060009054906101000a900473ffffffffffffffffffffffffffffffffffffffff1673ffffffffffffffffffffffffffffffffffffffff16141515611d155760006001600083815260200190815260200160002060006101000a81548173ffffffffffffffffffffffffffffffffffffffff021916908373ffffffffffffffffffffffffffffffffffffffff160217905550600073ffffffffffffffffffffffffffffffffffffffff168273ffffffffffffffffffffffffffffffffffffffff167f8c5be1e5ebec7d5bd14f71427d1e84f3dd0314c0f7b2291e5b200ac8c7c3b925836040518082815260200191505060405180910390a35b5050565b6000806000611d28858561224d565b60076000858152602001908152602001600020549250611d946001600660008873ffffffffffffffffffffffffffffffffffffffff1673ffffffffffffffffffffffffffffffffffffffff1681526020019081526020016000208054905061237b90919063ffffffff16565b9150600660008673ffffffffffffffffffffffffffffffffffffffff1673ffffffffffffffffffffffffffffffffffffffff16815260200190815260200160002082815481101515611de257fe5b9060005260206000200154905080600660008773ffffffffffffffffffffffffffffffffffffffff1673ffffffffffffffffffffffffffffffffffffffff16815260200190815260200160002084815481101515611e3c57fe5b90600052602060002001819055506000600660008773ffffffffffffffffffffffffffffffffffffffff1673ffffffffffffffffffffffffffffffffffffffff16815260200190815260200160002083815481101515611e9857fe5b9060005260206000200181905550600660008673ffffffffffffffffffffffffffffffffffffffff1673ffffffffffffffffffffffffffffffffffffffff168152602001908152602001600020805480919060019003611ef8919061264b565b50600060076000868152602001908152602001600020819055508260076000838152602001908152602001600020819055505050505050565b6000611f3d8383612394565b600660008473ffffffffffffffffffffffffffffffffffffffff1673ffffffffffffffffffffffffffffffffffffffff168152602001908152602001600020805490509050600660008473ffffffffffffffffffffffffffffffffffffffff1673ffffffffffffffffffffffffffffffffffffffff168152602001908152602001600020829080600181540180825580915050906001820390600052602060002001600090919290919091505550806007600084815260200190815260200160002081905550505050565b61201282826124ec565b600880549050600960008381526020019081526020016000208190555060088190806001815401808255809150509060018203906000526020600020016000909192909190915055505050565b6000806120818573ffffffffffffffffffffffffffffffffffffffff1661259c565b15156120905760019150612244565b8473ffffffffffffffffffffffffffffffffffffffff1663f0b9e5ba8786866040518463ffffffff167c0100000000000000000000000000000000000000000000000000000000028152600401808473ffffffffffffffffffffffffffffffffffffffff1673ffffffffffffffffffffffffffffffffffffffff16815260200183815260200180602001828103825283818151815260200191508051906020019080838360005b83811015612152578082015181840152602081019050612137565b50505050905090810190601f16801561217f5780820380516001836020036101000a031916815260200191505b50945050505050602060405180830381600087803b1580156121a057600080fd5b505af11580156121b4573d6000803e3d6000fd5b505050506040513d60208110156121ca57600080fd5b8101908080519060200190929190505050905063f0b9e5ba7c0100000000000000000000000000000000000000000000000000000000027bffffffffffffffffffffffffffffffffffffffffffffffffffffffff1916817bffffffffffffffffffffffffffffffffffffffffffffffffffffffff19161491505b50949350505050565b8173ffffffffffffffffffffffffffffffffffffffff1661226d826114dc565b73ffffffffffffffffffffffffffffffffffffffff1614151561228f57600080fd5b6122e26001600260008573ffffffffffffffffffffffffffffffffffffffff1673ffffffffffffffffffffffffffffffffffffffff1681526020019081526020016000205461237b90919063ffffffff16565b600260008473ffffffffffffffffffffffffffffffffffffffff1673ffffffffffffffffffffffffffffffffffffffff16815260200190815260200160002081905550600080600083815260200190815260200160002060006101000a81548173ffffffffffffffffffffffffffffffffffffffff021916908373ffffffffffffffffffffffffffffffffffffffff1602179055505050565b600082821115151561238957fe5b818303905092915050565b600073ffffffffffffffffffffffffffffffffffffffff1660008083815260200190815260200160002060009054906101000a900473ffffffffffffffffffffffffffffffffffffffff1673ffffffffffffffffffffffffffffffffffffffff1614151561240157600080fd5b8160008083815260200190815260200160002060006101000a81548173ffffffffffffffffffffffffffffffffffffffff021916908373ffffffffffffffffffffffffffffffffffffffff1602179055506124a56001600260008573ffffffffffffffffffffffffffffffffffffffff1673ffffffffffffffffffffffffffffffffffffffff168152602001908152602001600020546125af90919063ffffffff16565b600260008473ffffffffffffffffffffffffffffffffffffffff1673ffffffffffffffffffffffffffffffffffffffff168152602001908152602001600020819055505050565b600073ffffffffffffffffffffffffffffffffffffffff168273ffffffffffffffffffffffffffffffffffffffff161415151561252857600080fd5b6125328282611f31565b8173ffffffffffffffffffffffffffffffffffffffff16600073ffffffffffffffffffffffffffffffffffffffff167fddf252ad1be2c89b69c2b068fc378daa952ba7f163c4a11628f55a4df523b3ef836040518082815260200191505060405180910390a35050565b600080823b905060008111915050919050565b600081830190508281101515156125c257fe5b80905092915050565b828054600181600116156101000203166002900490600052602060002090601f016020900481019282601f1061260c57805160ff191683800117855561263a565b8280016001018555821561263a579182015b8281111561263957825182559160200191906001019061261e565b5b5090506126479190612677565b5090565b815481835581811115612672578183600052602060002091820191016126719190612677565b5b505050565b61269991905b8082111561269557600081600090555060010161267d565b5090565b905600a165627a7a72305820fe3005d5280fca76f71f8d13e0f4dc85623875e7c173993f9db11cfcf6aa1ee10029",
  "source": "pragma solidity ^0.4.24;\n\nimport 'zeppelin-solidity/contracts/token/ERC721/ERC721Token.sol';\n\ncontract Hack721Token is ERC721Token(\"Hack721Token\", \"HTK\") {\n\n\tmapping(string => uint256) internal nameToTokenId;\n\tmapping(uint256 => string) internal tokenIdToName;\n\tmapping(uint256 => bool) internal tokenIdToSolidaire;\n\tmapping(uint256 => string) internal tokenIdToAchievement;\n\tmapping(uint256 => string) internal tokenIdToPlatform;\n\tmapping(uint256 => uint) internal tokenIdToTime;\n\tmapping(uint256 => address) internal tokenIdToAddress;\n\n\tfunction create(string name, bool solidaire,  string achievment, string plateforme) public {\n\t\trequire(nameToTokenId[name] == 0);\n\t\tuint256 tokenId = allTokens.length + 1;\n\t\t_mint(msg.sender, tokenId);\n\t\tnameToTokenId[name] = tokenId;\n\t\ttokenIdToName[tokenId] = name;\n\t\ttokenIdToSolidaire[tokenId] = solidaire;\n\t\ttokenIdToAchievement[tokenId] = achievment;\n\t\ttokenIdToPlatform[tokenId] = plateforme;\n\t\ttokenIdToTime[tokenId] = now;\n\t\ttokenIdToAddress[tokenId] = msg.sender;\n\t}\n\n\tfunction getTokenName(uint256 tokenId) view public returns (string) {\n\t\treturn tokenIdToName[tokenId];\n\t}\n\n\tfunction getTokenId(string name) view public returns (uint) {\n\t\treturn nameToTokenId[name];\n\t}\n\n\tfunction getTokenSolidaire(uint256 tokenId) view public returns (bool) {\n\t\treturn tokenIdToSolidaire[tokenId];\n\t}\n\n\tfunction getTokenAchievement(uint256 tokenId) view public returns (string) {\n\t\treturn tokenIdToAchievement[tokenId];\n\t}\n\n\tfunction getTokenPlatform(uint256 tokenId) view public returns (string) {\n\t\treturn tokenIdToPlatform[tokenId];\n\t}\n\n\tfunction getTokenTime(uint256 tokenId) view public returns (uint) {\n\t\treturn tokenIdToTime[tokenId];\n\t}\n\n\tfunction getTokenAddress(uint256 tokenId) view public returns (address) {\n\t\treturn tokenIdToAddress[tokenId];\n\t}\n}\n",
  "sourcePath": "/Users/golfier/Documents/Personnel/git/hack721/contracts/Hack721Token.sol",
  "compiler": {
    "name": "solc",
    "version": "0.4.24+commit.e67f0147.Emscripten.clang"
  },
  "schemaVersion": "2.0.1",
  "updatedAt": "2018-07-01T10:33:52.686Z"
}